:020000040800F2
:1000000090060020A5010008C52A0008372800082E
:10001000C12A0008390800088B33000800000000DE
:10002000000000000000000000000000752D000826
:10003000B9090008000000004D2B0008772D0008CA
:10004000BF010008BF010008BF010008BF01000890
:10005000BF010008BF010008BF010008BF01000880
:10006000BF010008BF010008BF010008BF01000870
:10007000BF010008BF010008BF010008BF01000860
:10008000BF010008BF010008BF010008BF01000850
:10009000BF010008BF010008BF010008BF01000840
:1000A000BF010008BF010008BF010008BF01000830
:1000B000BF0100080000000000000000BF010008B0
:1000C000BF0100080000000000000000BF010008A0
:1000D00000000000BF010008BF0100080000000090
:1000E000BF010008BF010008000000000000000080
:1000F0000000000000000000000000000000000000
:10010000000000000000000000000000BF01000827
:100110000000000000000000BF010008BF0100084F
:10012000BF010008BF010008BF010008BF010008AF
:10013000BF010008000000000000000000000000F7
:10014000BF010008BF010008BF010008BF0100088F
:10015000BF010008BF010008BF010008BF0100087F
:10016000BF010008BF010008BF0100080000000037
:10017000BF010008BF0100080000000000000000EF
:10018000BF010008BF010008BF010008DFF810D060
:1001900000F06CFA00480047B53C0008AFF300805F
:1001A000900600200648804706480047FEE7FEE725
:1001B000FEE7FEE7FEE7FEE7FEE7FEE7FEE7FEE717
:1001C000592E00088D0100082DE9F05F054600203A
:1001D00092469B4688460646814640241BE02846B8
:1001E00041464746224600F06DF853465A46C01A2B
:1001F000914110D311461846224600F054F82D1AAA
:1002000067EB01084F4622460120002100F04BF821
:1002100017EB00094E41201EA4F10104DFDC484623
:1002200031462A46434600F000B830BCBDE8C09FC6
:10023000D2B201E000F8012B491EFBD27047002228
:10024000F6E710B513460A4604461946FFF7F0FFD5
:10025000204610BD00F0004230F000400AD0C10D31
:1002600001F56071C0F3160042EA0151C20840076F
:100270001143704700200146704730B50B460146D8
:1002800000202022012409E021FA02F59D4205D335
:1002900003FA02F5491B04FA02F52844151EA2F1DF
:1002A0000102F1DC30BD202A04DB203A00FA02F121
:1002B000002070479140C2F1200320FA03F3194354
:1002C00090407047202A04DB203A21FA02F00021F6
:1002D000704721FA02F3D040C2F120029140084356
:1002E000194670472DE9FE4F804681EA0300C00F92
:1002F0000C46009021F0004123F00045B8EB0200CD
:10030000A94105D24046214690461C460B4602466E
:1003100023F00040104347D0270DC7F30A00C3F372
:100320000A510290401A019040286BDAC3F313007F
:1003300040F4801B0098924620B10023D2EB030AC0
:1003400063EB0B0B01985946C0F140025046FFF792
:10035000AAFF06460D4650465946019A00F098F904
:1003600010EB08006141002487EA115284EAE77328
:100370001A4340D0009A62B3019A012A4FEA075209
:1003800015DC001B61EB02014FF0004202EA07524C
:10039000CDE90042001C41F5801132462B4600F0A9
:1003A00098F903B000F045B840462146F9E7001B34
:1003B00061EB0201001C41F5801300185B4120181D
:1003C000A2F5001747EB030140EAD570B6196D415D
:1003D00011E06D084FEA360645EAC0754FEA07524C
:1003E000001B61EB0201001C41F5801149084FEA36
:1003F00030000019514132462B4603B000F01CB8C2
:1004000000F058B90098012240000023D0EB02020E
:1004100063EBE073009821464FEAE074B8EB00000C
:1004200061EB0401E9E783F000435BE781F0004101
:1004300058E730BCBDE8C08F30BCBDE8C04FFFF707
:10044000DFBF2DE9FE4F81EA030404F0004421F0F0
:10045000004100944FF0000B23F0004350EA0104E8
:100460005ED052EA03045BD0C3F30A54C1F30A55C9
:100470002C44A4F2F3340194A0FB0254C1F3130101
:1004800041F48011C3F3130343F4801301FB0244CE
:1004900000FB034E840A970A44EA815447EA8357D3
:1004A000A4FB076802958D0A05FB07854FEA932C8C
:1004B00004FB0C542705029D4FEA065847EA1637FD
:1004C000B5EB08056EEB070C870E920E47EA811715
:1004D00042EA8312A7FB0201B6EB0B0164EB0004B6
:1004E0002B0D43EA0C335E1844EB1C50DA465146A0
:1004F000E7FB0201C5F313044FEA0B3343EA14533D
:100500004FEA0432019C43EA0603A4F10C0402946E
:10051000009CCDE900B400F0DCF803B000F003B8B3
:1005200000200146F9E730BCBDE8C08F2DE9F04D51
:1005300081EA030404F0004B21F0004514464FF01B
:10054000000A23F0004150EA050220D054EA0102DB
:100550001DD0C5F30A570246C5F31303C1F31300B8
:10056000C1F30A5640F4801543F48013A7EB060844
:10057000101BD64608F2FD3873EB050002D308F1D4
:10058000010801E092185B41B8F1000F03DA002086
:100590000146BDE8F08D00204FF4801106468446E8
:1005A0000EE0171B73EB050705D3121B63EB050366
:1005B00006434CEA010C49084FEA300092185B41AF
:1005C00050EA0107EDD152EA030012D082EA04009A
:1005D00083EA0501084305D0101BAB4106D2012276
:1005E000002306E000224FF0004302E06FF001021A
:1005F00053101AEB06004CEB085110EB0A0041EBCC
:100600000B01BDE8F04D00F055B8C1F30A52C1F33B
:10061000130140F2FF3341F480119A4202DA0020C4
:100620000146704740F233439A42A2F2334202DC61
:100630005242FFF747BEFFF736BE000030B5041E3A
:1006400071F1000404DB4FF00044404264EB01010F
:10065000141E73F1000405DB1C464FF000435242A8
:1006600063EB0403994208BF904230BD064C074D2E
:1006700006E0E06840F0010394E807009847103472
:10068000AC42F6D3FFF786FDF43E0008143F0008A5
:10069000202A06DBCB17203A41FA02F043EAE07346
:1006A00006E041FA02F3D040C2F120029140084333
:1006B0001946704710B5141E73F1000408DA401C87
:1006C00041F1000192185B411A4301D120F0010071
:1006D00010BD2DE9F04D92469B4611B1B1FA81F261
:1006E00002E0B0FA80F220329046FFF7DCFD0446CB
:1006F0000F4640EA0A0041EA0B0153465A460843B6
:1007000013D0114653EA010019D0C8F140025046F7
:10071000FFF7D8FD05460E46504659464246FFF7BC
:10072000C2FD084305D0012004E020463946BDE85B
:10073000F08D0020054346EAE0762C4337430A98C3
:100740006305E40AA0EB08000022FD0A44EA4754CE
:100750000A3002D500200146E9E701051019694178
:10076000DDE9084500196941BDE8F04DA2E7000048
:1007700038B5044600200090206802F075F8002883
:100780004FD1206880682849084048B1606D40F02A
:1007900010006065A06D40F00100A065012038BD2B
:1007A000206802F04BF800BF2048806800F0E0703D
:1007B00000F4000080B11E4800681E49B0FBF1F053
:1007C000401C00EB40008000009002E00098401EBA
:1007D000009000980028F9D100F050FE05461AE07C
:1007E000206802F041F810B9206802F027F800F004
:1007F00045FE401B02280ED92068006800F0010069
:1008000048B9606D40F010006065A06D40F00100D7
:10081000A0650120C3E72068006800F001000028FF
:10082000DED00020BBE700003F0000800003045042
:1008300024000020400D030000BFFEE72DE9FC412D
:1008400006460F4600F0A3F8684600F051F84FF056
:100850000008002006E01DF80010414401F0FF08E8
:10086000411CC8B20428F6DB9DF80400404522D1A3
:100870009DF803009DF8021040EA01249DF8010054
:100880009DF8001040EA012500EE104AB8EE400A3B
:10089000F2EE040A80EE201A86ED001A00EE105ADD
:1008A000B8EE400AF2EE040A80EE201A87ED001A34
:1008B0000120BDE8FC810020FBE70000024609485A
:1008C000026009480180002008E0012383400B40BA
:1008D00013B1064B187003E0431CD8B21028F4DBA8
:1008E00000BF704700000020040000200600002028
:1008F0002DE9F041044600250027282000F05EF88D
:1009000000BF02F0FDF80028FBD000BF02F0F8F8AD
:100910000028FBD11F2614E000BF02F0F1F80028E8
:10092000FBD0282000F04AF802F0EAF810B10120CC
:10093000B040054300BF02F0E3F80028FBD1701E71
:1009400046B2002EE8DA072615E000BF02F0D8F81C
:100950000028FBD0282000F031F802F0D1F818B1BF
:100960000120B0403843C7B200BF02F0C9F80028E8
:10097000FBD1701E46B2002EE7DA280E2070280C3C
:100980006070280AA070E5702771BDE8F08110B58D
:10099000002002F099F8002002F0C0F84FF4FA703D
:1009A00000F00CF8012002F0B9F81E2000F006F863
:1009B000012002F089F810BD704700000146074A87
:1009C0001268074BB2FBF3F20323B2FBF3F251437D
:1009D00000BF0A1EA1F10101FBD1704724000020D5
:1009E00040420F0072B600BFFEE700002DE9F84F4D
:1009F00005460C464FF0000A00200090FE49E068D2
:100A0000884200D000E000BF00BF95F850000128E8
:100A100002D1022000F050BA012085F8500000BF3A
:100A2000286801F02BFF002872D1606805281AD8C9
:100A30006068022806D0032807D0042808D00528BB
:100A40000DD108E00C2060600CE01220606009E02D
:100A50001820606006E04FF48070606002E00620BD
:100A6000606000BF00BF2968D4E9002001F1300CAC
:100A7000C0F3012B0CEB8B03D3F800C000F01F0E6A
:100A80004FF01F0B0BFA0EFB2CEA0B0C00F01F0BA8
:100A9000C2F3846E0EFA0BFE4CEA0E0CC3F800C0D3
:100AA00000BF286801F0EAFE8146286801F0D7FE01
:100AB0008046B9F1000F2AD1B8F1000FFBD1A2682E
:100AC0002168286801F0F0FE60692968C968C1F3EF
:100AD000C101490000FA01F72069042819D02868EB
:100AE0002268216900F1600C0CEB8103D3F800C08F
:100AF000DFF808B30CEA0B0C02F0F84B4BF0004B9C
:100B00004BEA070B4CEA0B0CC3F800C000BFA8E08F
:100B1000B8E10021286801F099FEC0F3120030B955
:100B20000021286801F092FEC0F3846007E00021F4
:100B3000286801F08BFE90FAA0F0B0FA80F02168EE
:100B4000C1F3120119B92168C1F3846104E021687D
:100B500091FAA1F1B1FA81F1884204D10022114643
:100B6000286801F0BBFE0121286801F06FFEC0F388
:100B7000120030B90121286801F068FEC0F38460DA
:100B800007E00121286801F061FE90FAA0F0B0FAB8
:100B900080F02168C1F3120119B92168C1F38461A1
:100BA00004E0216891FAA1F1B1FA81F1884204D1FF
:100BB00000220121286801F091FE0221286801F03D
:100BC00045FEC0F3120030B90221286801F03EFE54
:100BD000C0F3846007E00221286801F037FE90FA34
:100BE000A0F0B0FA80F02168C1F3120119B92168B0
:100BF000C1F3846104E0216891FAA1F1B1FA81F1B5
:100C0000884204D100220221286801F067FE0321F6
:100C1000286801F01BFEC0F3120030B903212868D8
:100C200001F014FEC0F3846007E00321286801F09E
:100C30000DFE90FAA0F0B0FA80F02168C1F3120125
:100C400019B92168C1F3846104E0216891FAA1F126
:100C5000B1FA81F1884204D100220321286801F011
:100C60003DFE286801F000FE002870D12868E26887
:100C70002168D0F8B0C0C1F312032CEA030C02F0D3
:100C8000180B5F4B23FA0BF30B404CEA030CC0F834
:100C9000B0C000BF5849E068884258D12368C3F308
:100CA00012031BB92368C3F3846304E0236893FA37
:100CB000A3F3B3FA83F35B1C03F01F03092B3ED8A5
:100CC0002368C3F312031BB92368C3F3846304E0EE
:100CD000236893FAA3F3B3FA83F35B1C03F01F03B7
:100CE0004FF0010C0CFA03FC2368C3F312031BB989
:100CF0002368C3F3846304E0236893FAA3F3B3FA8D
:100D000083F35B1C03F01F034CEA836C2368C3F37B
:100D100012031BB92368C3F3846304E0236893FAC6
:100D2000A3F3B3FA83F35B1C03F01F0303EB43034A
:100D30004FF0000B4BEA03534CEA03033FE02368F8
:100D4000C3F3120323B92368C3F3846305E03BE0D4
:100D5000236893FAA3F3B3FA83F35B1C03F01F0336
:100D60004FF0010C0CFA03FC2368C3F312031BB908
:100D70002368C3F3846304E0236893FAA3F3B3FA0C
:100D800083F35B1C03F01F034CEA836C2368C3F3FB
:100D900012031BB92368C3F3846304E0236893FA46
:100DA000A3F3B3FA83F35B1C03F01F030A3B03EBCB
:100DB00043034FF0007B4BEA03534CEA030319460D
:100DC000A268286801F070FD0E492068084078B3D9
:100DD00000BF0D48806800F0E07600BF0B49206836
:100DE00088422DD106F4000050BB0949286888428A
:100DF0004ED146F400010DE000007F4000F0FF03FB
:100E0000FFFF07000000088000030450000052C7E5
:100E100000000450224801F05BFD2248006822498E
:100E2000B0FBF1F0401C00EB40008000009003E0BC
:100E300016E00098401E009000980028F9D127E0A5
:100E40001A49206888420CD106F0807048B91849C8
:100E5000286888421CD146F08071114801F038FDA5
:100E600016E014492068884212D106F4800078B94F
:100E70000F49286888420BD146F48001084801F0E8
:100E800027FD05E0686D40F0200068654FF0010A1D
:100E900000BF002085F8500000BF5046BAE50000B2
:100EA0000003045024000020400D0300000084CB08
:100EB000000004500100008018BCBDE8E08F01462E
:100EC0000868006C704700002DE9F84304464FF0B5
:100ED00000090020009014B90120BDE8F8832069C2
:100EE00020B12020005D012800D100BF606D30B925
:100EF000204600F0E9F80020A06584F85000206842
:100F00008168C1F3407131B120688168674A11403E
:100F1000816000BF00BF206801F0ABFCB0B9206861
:100F20008168634A114041F08051816000BF61488F
:100F300000686149B0FBF1F0401C4000009002E005
:100F40000098401E009000980028F9D1206801F018
:100F500090FC48B9606D40F010006065A06D40F0F5
:100F60000100A0654FF00109206801F087FC0646EA
:100F7000606D00F0100000287ED1002EFCD1606D65
:100F800020F4807040F002006065206801F06CFC85
:100F900068B94A4801F068FC48B9606848498968FE
:100FA00021F47C110143464A916000BF00BF607E7E
:100FB000616B41EA4030E1680843A16808432021A1
:100FC000095D40EA01452020005D012803D1A08C85
:100FD000401E45EA4045A06A28B1208D00F470709B
:100FE000E16A084305432068C06836490840284341
:100FF0002168C860206801F041FC8046206801F04B
:101000002EFC0746B8F1000F2CD127BB207E002113
:1010100041EA803194F8300041EA40052068C06818
:1010200044F20201884328432168C86094F83800DC
:10103000012811D1E06B40F00101206C0843616C84
:101040000843A16C08432168096940F2FC7291438E
:1010500008432168086105E02068006920F001006C
:1010600021680861206901280BD12068006B20F0FD
:101070000F00E169491E00E010E0084321680863A1
:1010800005E02068006B20F00F0021680863606DA8
:1010900020F0020040F00100606505E0606D40F066
:1010A000100060654FF00109484616E7C0FFFF5F7A
:1010B000C0FFFF7F24000020400D0300000004500B
:1010C0000003045007C0F0FF10B586B00446142199
:1010D00001A8FFF7B4F816492068884225D100BF5F
:1010E0001448C06C40F400501249C8640846C06CF3
:1010F00000F40050009000BF00BF00BF0846C06C65
:1011000040F00100C8640846C06C00F00100009087
:1011100000BF00BF102001900B2002900020039020
:1011200001A94FF0904000F0C9F806B010BD0000D2
:1011300000000450001002402DE9F04104460E4624
:101140006069082801D108250CE02068C06800F01B
:10115000010030B1606D40F0200060650120BDE805
:10116000F081042500F08AF9074616E0701CA0B152
:1011700000F084F9C01BB04200D876B9206800683E
:10118000284050B9606D40F00400606500BF002049
:1011900084F8500000BF0320E1E720680068284081
:1011A0000028E3D0606D40F400706065206801F0B5
:1011B0006AFB98B1607E88B92068006800F008007A
:1011C00008280BD1606D20F480706065606D00F4BC
:1011D000805018B9606D40F0010060652068D0F85B
:1011E0000C80082D03D108202168086005E008F470
:1011F000804010B90C20216808600020AFE770B56E
:101200000446206801F03AFB00283FD100BF94F863
:101210005000012801D1022070BD012084F8500047
:1012200000BF2046FFF7A4FA054655BB606D40F6A7
:101230000161884340F480706065606D00F4805007
:10124000B0F5805F04D1A06D20F00600A06501E03C
:101250000020A0651C202168086000BF002084F8E1
:10126000500000BF2068C06800F0007028B1606DB9
:1012700020F4005040F480506065206801F00CFBC1
:1012800005E000BF002084F8500000E00225284659
:10129000C2E7000070B5044600F0F0F806462546A7
:1012A000681C10B104480078054400BF00F0E6F85F
:1012B000801BA842FAD370BD2000002078B50346F9
:1012C0000A460021BBE001268E40156805EA0604A7
:1012D000002C73D0157905F00305012D04D0157984
:1012E00005F00305022D13D198684E000325B54083
:1012F000A8434E00D568B54028439860586801253A
:101300008D40A8431579C5F300158D4028435860DA
:10131000157905F00305032D09D0D8684E00032583
:10132000B540A8434E009568B5402843D86015796C
:1013300005F00305022D13D1CE0803F1200555F861
:1013400026004D07EE0E0F25B540A8434E07F60EBA
:101350001569B5402843CE0803F1200545F826005D
:1013600018684E000325B540A843157905F003051C
:101370004E00B54028431860556805F44035002DEF
:101380005CD000BF314D2D6E45F001052F4E356606
:1013900035462D6E05F00105009500BF00BF4FEAF0
:1013A000B6358E0855F826008D072E0F0F25B5404F
:1013B000A843B3F1904F02D100250BE03EE0244D4D
:1013C000AB4201D1012505E0224DAB4201D10225FE
:1013D00000E007258E07360FB54028431E4D8E08C6
:1013E00045F826001D4D2868A043556805F4801572
:1013F00005B12043194D28602D1D2868A04355686C
:1014000005F4001505B12043144D2D1D2860134D22
:101410002D1F2868A043556805F4003505B1204309
:101420000E4D2D1F28602D1F2868A043556805F418
:10143000803505B12043094D083D2860491C1568D9
:10144000CD40002D7FF43FAF78BD0000001002407A
:10145000000400480008004808000140080401405A
:10146000024613690B400BB1012000E000207047D9
:101470000AB1816100E081627047000001480068A4
:1014800070470000180000200348006803490978ED
:10149000084401490860704718000020200000201F
:1014A00010B50024032000F099F8002000F008F89F
:1014B00008B1012401E000F02FF8204610BD000023
:1014C00070B50446002511480078D8B10F4800785F
:1014D0004FF47A71B1FBF0F00D490968B1FBF0F6F9
:1014E000304600F0B9FF58B9102C07D2002221462F
:1014F000501E00F031F80748046004E0012502E0C6
:10150000012500E00125284670BD000020000020D4
:10151000240000201C00002008B500BF0D48006E0C
:1015200040F001000B4908660846006E00F001001B
:10153000009000BF00BF00BF0846806D40F08050A3
:1015400088650846806D00F08050009000BF00BFA5
:1015500008BD0000001002402DE9F05F80460D46F6
:101560001646002701F028FF074639462A4633462B
:1015700001F00700C0F1070ABAF1040F02D94FF0D9
:10158000040A01E0C0F1070AD14600F1040ABAF1E9
:10159000070F02D24FF0000A01E0A0F1030AD4467F
:1015A0004FF0010A0AFA09FAAAF1010A0AEA020A44
:1015B0000AFA0CFA4FF0010B0BFA0CFBABF1010B22
:1015C0000BEA030B4AEA0B042146404601F0FCFEFD
:1015D00000F000B830BCBDE8C09F000000BF00F0C4
:1015E0000702064B19684FF6FF031940044B0B43E3
:1015F00043EA0221014B196000BF70470CED00E087
:101600000000FA050246B2F5007F2AD11D480068A5
:1016100000F4C060B0F5007F32D01A48006820F4B2
:10162000C06040F40070174B186017480068322300
:101630005843164BB0FBF3F0411C00E0491E114823
:10164000406900F48060B0F5806F01D10029F5D1C8
:101650000C48406900F48060B0F5806F10D1032021
:1016600070470848006800F4C060B0F5806F07D08C
:101670000448006820F4C06040F48060014B1860AA
:101680000020EDE7007000402400002040420F00E1
:101690000248006800F4C06070470000007000401D
:1016A0000348006840F480700149086070470000FA
:1016B000007000400348006840F0040001490860E1
:1016C00070470000001002402DE9F8430446002551
:1016D000A846208800F40060B0F5006F26D1E06BCA
:1016E00068B1B0F5000F03D0B0F5400F0ED10CE09B
:1016F000C648C06840F48030C449C86008E0002192
:10170000201D01F025FA054602E001E0012500BF99
:1017100000BF55B9BD488830006820F44000E16B37
:101720000843BA49C1F8880000E0A846206800F4E0
:101730000030B0F5003F75D14FF00009B348806D1F
:10174000012121EA107078B100BFB048806D40F0EF
:101750008050AE4988650846806D00F0805000904A
:1017600000BF00BF4FF00109A948006840F4807035
:10177000A7490860FFF782FE074606E0FFF77EFEF6
:10178000C01B022801D9032505E0A148006800F428
:1017900080700028F2D000BF7DBB9C48903000686C
:1017A00000F44076CEB1206DB04216D0974890300C
:1017B000006820F440769548D0F8900040F48030DE
:1017C0009249C1F890000846D0F8900020F480308B
:1017D000C1F890000846C0F8906006F00100A8B17A
:1017E000FFF74CFE074609E0FFF748FEC01B41F239
:1017F0008831884202D9032507E016E083489030FB
:10180000006800F002000028EED000BF5DB97F48FC
:101810009030006820F44070216D08437B49C1F886
:10182000900003E00CE0A84600E0A846B9F1010FE3
:1018300005D17648806D20F080507449886500BFDE
:10184000207800F0010048B170488830006820F02E
:101850000300216A08436D49C1F88800207800F030
:101860000200022809D169488830006820F00C0085
:10187000616A08436549C1F88800207800F02000BB
:10188000202809D161488830006820F44060A16AAE
:1018900008435E49C1F88800208800F40070B0F564
:1018A000007F09D159488830006820F44020616BDE
:1018B00008435649C1F88800208800F48060B0F5DC
:1018C000806F09D151488830006820F44010A16B26
:1018D00008434E49C1F88800207800F040004028B5
:1018E00009D14A488830006820F44050E16A084332
:1018F0004649C1F88800208800F48070B0F5807FE8
:1019000009D142488830006820F44030216B0843F8
:101910003E49C1F88800208800F40050B0F5005F0F
:101920001FD13A488830006820F04060216C08439D
:10193000364988310860206CB0F1006F06D1334819
:10194000C06840F480103149C8600AE0206CB0F1F2
:10195000806F06D10121201D01F0FAF8054605B17E
:10196000A846206800F48020B0F5802F1FD12748BA
:101970008830006820F04060616C0843234988315A
:101980000860606CB0F1006F06D12048C06840F478
:1019900080101E49C8600AE0606CB0F1806F06D10B
:1019A0000121201D01F0D4F8054605B1A846208884
:1019B00000F48040B0F5804F14D11448883000689E
:1019C00020F04050A16C0843104988310860A06C99
:1019D000B0F1805F06D10221201D01F0B9F8054663
:1019E00005B1A846208800F40040B0F5004F09D1A9
:1019F00006488830006820F08040E16C08430349C5
:101A0000C1F888004046BDE8F8830000001002409D
:101A1000007000402DE9F04104460D4614B9012044
:101A2000BDE8F0816348006800F00700A8420ED2CC
:101A30006048006820F0070028435E4908600846B7
:101A4000006800F00700A84201D00120E8E72078F4
:101A500000F0020002280ED15749A068896801F001
:101A6000F001884207D95448806820F0F000A1684E
:101A7000084351498860207800F0010078B360681D
:101A8000032806D14C48006800F00070D8B9012046
:101A9000C6E76068022806D14748006800F40030B5
:101AA00088B90120BCE7606830B94348006800F09D
:101AB000020040B90120B3E73F48006800F48060AD
:101AC00008B90120ACE73C48806820F00300616859
:101AD000084339498860FFF7D1FC064609E010E069
:101AE000FFF7CCFC801B41F28831884201D90320EA
:101AF00096E73148806800F00C006168B0EB810F18
:101B0000EED1207800F0020002280ED12A49A06808
:101B1000896801F0F001884207D22748806820F0E8
:101B2000F000A1680843244988602248006800F05A
:101B30000700A8420ED91F48006820F0070028437C
:101B40001C4908600846006800F00700A84201D060
:101B5000012065E7207800F00400042807D116482A
:101B6000806820F4E060E1680843134988602078C9
:101B700000F00800082808D10F48806820F4605061
:101B8000216940EAC1000C49886000F047F80A4921
:101B90008968C1F30311094A515C01F01F01C84073
:101BA0000749086007480068FFF78AFC074638467F
:101BB00036E700000020024000100240AC3E000862
:101BC000240000201C00002001480068704700002D
:101BD0002400002000B5FFF7F7FF05498968C1F32D
:101BE0000221044A515C01F01F01C84000BD000001
:101BF00000100240BC3E000800B5FFF7E5FF0549B4
:101C00008968C1F3C221044A515C01F01F01C84038
:101C100000BD000000100240BC3E0008F0B50023EB
:101C20000020DFF8D4C0DCF808C00CF00C01DFF8AD
:101C3000C8C0DCF80CC00CF0030719B10C291ED188
:101C4000012F1CD1DFF8B0C0DCF800C00CF0080C8C
:101C5000BCF1000F06D1DFF8A0C0DCF894C0CCF3D3
:101C6000032305E0DFF890C0DCF800C0CCF30313D9
:101C7000DFF888C05CF8233041B9184606E0042933
:101C800001D11F4802E0082900D11E480C2932D199
:101C9000DFF864C0DCF80CC00CF00304012C09D0A0
:101CA000022C02D0032C04D101E0154A04E0154AAD
:101CB00002E000BF1A4600BF00BFDFF83CC0DCF8FE
:101CC0000CC0CCF3021C0CF10106DFF82CC0DCF8D0
:101CD0000CC0CCF3062C0CFB02FCBCFBF6F2DFF8CC
:101CE00018C0DCF80CC0CCF3416C0CF1010C4FEACD
:101CF0004C05B2FBF5F0F0BD00100240C43E0008F8
:101D00000024F40000127A002DE9F843044614B9C7
:101D10000120BDE8F883F948806800F00C06F74818
:101D2000C06800F00307207800F01000102877D179
:101D30001EB10C2E76D1012F74D1F048006800F04E
:101D4000020018B1A06908B90120E2E7EB48216A56
:101D5000006800F0080020B1E848006800F0F000DA
:101D600005E0E6489430006800F4706000098142A4
:101D70001FD9206A00F0B0FF08B10120C9E700BFF9
:101D8000DE48006840F00800DC490860084600684A
:101D900020F0F000216A0843D849086000BF0846D7
:101DA000406820F47F40E16940EA0120D34948605F
:101DB0001FE000BFD148006840F00800CF4908602C
:101DC0000846006820F0F000216A0843CB4908600B
:101DD00000BF0846406820F47F40E16940EA0120E6
:101DE000C64948602EB9206A00F076FF08B101208C
:101DF0008FE7FFF713FFC1498968C1F30311C04A98
:101E0000515C01F01F01C840BE490860BE4800682F
:101E1000FFF756FB8046B8F1000F4ED0404678E7FA
:101E20004BE0FFE7A06980B3B448006840F00100D0
:101E3000B2490860FFF722FB054606E0FFF71EFBEC
:101E4000401B022801D9032063E7AC48006800F07A
:101E500002000028F2D000BFA848006840F0080047
:101E6000A64908600846006820F0F000216A08438F
:101E7000A249086000BF0846406820F47F40E1693D
:101E800040EA01209D49486017E0FFE79B48006851
:101E900020F0010099490860FFF7F0FA054606E0D6
:101EA000FFF7ECFA401B022801D9032031E79348E1
:101EB000006800F002000028F2D1207800F0010054
:101EC00000285CD0082E03D00C2E0AD1032F08D195
:101ED0008A48006800F4003088B3606878BB01204D
:101EE00017E700BF6068B0F5803F06D183480068FF
:101EF00040F48030814908601AE06068B0F5A02F96
:101F00000BD17E48006840F480207C490860084678
:101F1000006840F4803008600AE07848006820F4E7
:101F20008030764908600846006820F48020086008
:101F300000BF606890B1FFF7A1FA054607E01EE018
:101F4000FFF79CFA401B642801D90320E1E66B48A7
:101F5000006800F400300028F2D010E0FFF78EFA9D
:101F6000054606E0FFF78AFA401B642801D90320E2
:101F7000CFE66248006800F400300028F2D12078F3
:101F800000F00200022852D1042E03D00C2E14D1EE
:101F9000022F12D15948006800F4806018B1E0683F
:101FA00008B90120B5E65548406820F0F850217C7A
:101FB00040EA01605149486039E0E06800B34F48A9
:101FC000006840F480704D490860FFF757FA0546F5
:101FD00006E0FFF753FA401B022801D9032098E6D8
:101FE0004648006800F480600028F2D0434840680A
:101FF00020F0F850217C40EA01604049486016E03A
:102000003E48006820F480703C490860FFF736FACB
:10201000054606E0FFF732FA401B022801D90320EB
:1020200077E63648006800F480600028F2D1207816
:1020300000F00800082836D16069D0B12F489430EC
:10204000006840F001002D49C1F89400FFF716FA2E
:10205000054606E0FFF712FA401B022801D90320CB
:1020600057E626489430006800F002000028F1D0BE
:1020700019E022489430006820F001001F49C1F89F
:102080009400FFF7FBF9054606E0FFF7F7F9401B60
:10209000022801D903203CE618489430006800F07B
:1020A00002000028F1D1207800F00400042872D149
:1020B0004FF000091148806D00F0805078B900BFE2
:1020C0000E48806D40F080500C4988650846806D50
:1020D00000F08050009000BF00BF4FF001090B4896
:1020E000006800F4807000BB0848006840F480700D
:1020F00006490860FFF7C2F9054610E000100240EB
:10210000AC3E0008240000201C00002000700040AD
:10211000FFF7B4F9401B022801D90320F9E5CA48AA
:10212000006800F480700028F2D000BFA068012889
:1021300008D1C648006840F00100C4499039C1F890
:10214000900021E0A06805280FD1C048006840F049
:102150000400BE499039C1F890000846D0F89000BC
:1021600040F00100C1F890000EE0B848006820F08F
:102170000100B6499039C1F890000846D0F89000A7
:1021800020F00400C1F8900000BFA068A0B1FFF7E4
:1021900075F9054609E02EE0FFF770F9401B41F2A2
:1021A0008831884201D90320B3E5A848006800F0CF
:1021B00002000028F0D012E0FFF760F9054608E0C1
:1021C000FFF75CF9401B41F28831884201D90320B6
:1021D0009FE59E48006800F002000028F0D1B9F1A8
:1021E000010F07D199489038806D20F080509749B1
:1021F0009039886500BF207800F02000202838D171
:10220000606AD8B191480830006840F001008F49F9
:102210009039C1F89800FFF731F9054606E0FFF75D
:102220002DF9401B022801D9032072E587480830A8
:10223000006800F002000028F1D01AE0834808305E
:10224000006820F0010081499039C1F89800FFF73B
:1022500015F9054606E0FFF711F9401B022801D9E0
:10226000032056E579480830006800F00200002895
:10227000F1D1A06A00287DD0A06A02287BD17348E2
:102280009038C76807F00301E06A814225D107F062
:102290007001206B401EB1EB001F1ED107F4FE4100
:1022A000606BB1EB002F18D107F078413820005D4A
:1022B000B1EBC06F11D107F4C001A08F0122C2EBB6
:1022C0005000B1EB405F08D107F0C0614020005DD5
:1022D000C2EB5000B1EB406F66D00C2E62D05B4871
:1022E0009038006800F0806008B1012011E557487F
:1022F0009038006820F08070544990390860FFF7EA
:10230000BDF8054606E0FFF7B9F8401B022801D9E1
:102310000320FEE44D489038006800F0007000286B
:10232000F1D1D4E90B10401E41EA0011606B41EA83
:102330000021A08F0122C2EB500041EA4051402011
:10234000005DC2EB500041EA40613820005D41EA87
:10235000C0603E499039C9683D4A114008433B4935
:102360009039C8600846006840F0807008600846F0
:10237000C06801E053E03DE040F08070C860FFF7C6
:102380007DF8054606E0FFF779F8401B022801D9E1
:102390000320BEE42D489038006800F0007000284B
:1023A000F1D04FE00120B4E428489038006800F0F4
:1023B0000070A0BB25489038006840F08070234929
:1023C000903908600846C06840F08070C860FFF728
:1023D00055F8054606E0FFF751F8401B022801D9E1
:1023E000032096E419489038006800F00070002837
:1023F000F1D027E00C2E23D014489038006820F04C
:102400008070124990390860FFF738F8054607E0F8
:10241000FFF734F8401B022802D9032079E411E0C9
:102420000A489038006800F000700028F0D1074892
:102430009038C0680749084004499039C86001E0F5
:10244000012066E4002064E4007000409010024027
:102450008C809D01FCFFEEFE70B504462546681E8B
:10246000B0F1807F01D301200FE0681E4FF0E02122
:1024700048610F214FF0FF3000F0A6FF00204FF021
:10248000E021886107200861002070BD10B5044676
:102490000CB9012010BDA06900B100E000BFA06F21
:1024A00028B9002084F87400204600F029F8242080
:1024B000A0672068006820F00100216808602046BD
:1024C00000F08AFD012800D1E4E7606A10B12046DF
:1024D00000F0CCFC2068406820F4904021684860FF
:1024E0002068806820F02A002168886020680068E1
:1024F00040F0010021680860204600F033FDC9E784
:1025000010B586B00446142101A8FDF798FE444991
:102510002068884245D100BF4248006E40F48040A8
:10252000404908660846006E00F48040009000BFF5
:1025300000BF00BF0846C06C40F00100C8640846F8
:10254000C06C00F00100009000BF00BF00BF084653
:10255000C06C40F00200C8640846C06C00F0020085
:10256000009000BF00BF08150190022002900020DB
:102570000390032004900720059001A94FF090409C
:10258000FEF79CFE40200190022002900020039064
:10259000032004900720059001A92348FEF78EFE32
:1025A0003CE022492068884238D100BF1D48806D38
:1025B00040F400301B4988650846806D00F4003007
:1025C000009000BF00BF00BF0846C06C40F0010093
:1025D000C8640846C06C00F00100009000BF00BF56
:1025E0000420019002200290002003900320049018
:1025F0000720059001A94FF09040FEF75FFE4FF4D1
:1026000000400190022002900020039003200490DB
:10261000059001A94FF09040FEF750FE06B010BDA6
:10262000003801400010024000040048004400400F
:102630002DE9F84F04460E4617469A46E06F2028CB
:1026400073D106B117B9012000F086B800BF94F825
:102650007400012801D10220F6E7012084F87400FB
:1026600000BF00205834A062222060620020A060D9
:10267000FEF704FF834627806780583C00BFA068B0
:10268000B0F5805F0AD1206920B940F2FF10A4F8AC
:102690005C0020E0FF20A4F85C001CE0A06848B9C2
:1026A000206918B9FF20A4F85C0014E07F20A4F88A
:1026B0005C0010E0A068B0F1805F09D1206918B912
:1026C0007F20A4F85C0006E03F20A4F85C0002E054
:1026D0000020A4F85C0000BFB4F85C90A068B0F5DE
:1026E000805F04D1206910B90025B04602E035466C
:1026F0004FF0000800BF002084F8740000BF21E004
:102700005B46002220212046CDF800A000F0C1FD4C
:1027100008B1032098E74DB92068808C00EA0900D1
:10272000A8F8000008F1020807E013E02068808C98
:1027300009F0FF01084028706D1CB4F85A00401ED3
:10274000A4F85A00B4F85A000028D9D12020E06734
:10275000002079E7022077E718BCBDE8E08F2DE97B
:10276000F84F04460E4617469946A06F20285DD1C3
:1027700006B117B9012000F05BB800BF94F87400EF
:10278000012801D10220F6E7012084F8740000BF7F
:102790000020503420632120A062FEF76FFE8246A5
:1027A00027806780503CA068B0F5805F04D1206925
:1027B00010B90025B04602E035464FF0000800BFD2
:1027C000002084F8740000BF1DE0534600228021E1
:1027D0002046CDF8009000F05CFD08B10320CAE768
:1027E00045B9B8F80000C0F308002168088508F171
:1027F000020803E02878216808856D1CB4F85200AF
:10280000401EA4F85200B4F852000028DDD153460F
:10281000002240212046CDF8009000F03AFD08B19A
:102820000320A8E72020A0670020A4E70220A2E759
:1028300018BCBDE8E08F00BFFEE700008168024AD7
:102840001140491C81607047C0FFFF7F024602F1C2
:10285000600000EB8103186800F0F8407047014603
:102860008868C0F3C00070470146886800F0010026
:10287000704701468868C0F3007070470146886859
:10288000C0F3800070470146C86800F4406008B992
:10289000012070470020FCE78168024A1140091DB1
:1028A00081607047C0FFFF7F70B500F11404C1F371
:1028B000406504EB85031C68C1F304560725B54049
:1028C000AC43C1F3045502FA05F52C431C6070BDFE
:1028D000826822F0E0720A438260704710B500F10E
:1028E000600404EB81031C6824F0004414431C6062
:1028F00010BD000000B587B0182101A8FDF79FFCAE
:102900001B481C490860002048600021194881606C
:10291000C1600161042141610021017601214176FC
:10292000C161002180F820108162C16280F83010FE
:102930004FF480514163002180F83810FEF7C4FA4B
:1029400008B1FEF74FF80C480190062002900020D5
:1029500003907F200490042005900020069001A998
:102960000448FEF743F808B1FEF73CF807B000BD95
:1029700000000450280000200002B02500B587B0F8
:10298000142102A8FDF75BFC00BF2B48C06C40F08F
:1029900004002949C8640846C06C00F00400019096
:1029A00000BF00BF00BF0846C06C40F00100C86413
:1029B0000846C06C00F00100019000BF00BF00BFDE
:1029C0000846C06C40F00200C8640846C06C00F0C5
:1029D0000200019000BF00BF00224FF408714FF0C9
:1029E0009040FEF745FD00220B211448FEF740FD04
:1029F0008820029000200390049002A94FF090409C
:102A0000FEF75CFC4FF40870029001200390002058
:102A10000490059002A94FF09040FEF74FFC0B2068
:102A200002900120039000200490059002A9034821
:102A3000FEF744FC07B000BD00100240000400484F
:102A400010B50D480D4908604FF41650486000213C
:102A50000A488160C16001610C21416100218161EE
:102A6000C16101620020054948620846FFF70EFD7A
:102A700008B1FDF7B7FF10BD003801408C00002001
:102A800010B50D480D4908604FF4E1304860002151
:102A90000A488160C16001610C21416100218161AE
:102AA000C16101620020054948620846FFF7EEFC5B
:102AB00008B1FDF797FF10BD004400401001002051
:102AC00000BFFEE700BFFEE710B586B004460A4827
:102AD0000088019000200490039014B90120029016
:102AE00003E0012C01D10020029001A903480068F5
:102AF000FEF7E4FB06B010BD04000020000000203B
:102B000010B50448018804480068FEF7A9FC00F0ED
:102B1000010010BD040000200000002010B5044694
:102B20003CB101220748018807480068FEF7A0FC75
:102B300006E000220348018803480068FEF798FC7D
:102B400010BD0000040000200000002070470000BD
:102B50002DE9F04104460F4600255B48C06800F0AF
:102B6000030090B15848C06800F003002168884213
:102B700009D1206838B15448C068C0F30210401C25
:102B80006168884233D0012531E02068012804D0F3
:102B9000022809D003281AD10DE04B48006800F044
:102BA000020000B9012514E04748006800F4806085
:102BB00000B901250DE04448006800F4003028B950
:102BC0004148006800F4802000B9012501E001259A
:102BD00000BF00BF5DB9D4E90010401E41EA0010FB
:102BE0003949C96821F0730108433749C860002D8D
:102BF00067D13548006820F0806033490860FEF7EF
:102C00003DFC064606E0FEF739FC801B022801D990
:102C1000032505E02C48006800F000600028F2D190
:102C200000BFC5BB67B9A0680002217B40EAC16054
:102C300025490969254A114008432349086120E0D4
:102C4000012F0FD1A0680002218A0122C2EB51019D
:102C500040EA41501C4909691D4A114008431A497C
:102C600008610EE0A0680002217D0122C2EB510143
:102C700040EA416014490969164A11400843124963
:102C800008611148006840F080600F490860FEF755
:102C9000F5FB064607E014E0FEF7F0FB801B022878
:102CA00001D9032505E00848006800F0006000280D
:102CB000F2D000BF2DB904480069A1690843024958
:102CC00008612846BDE8F08100100240FF80FF0740
:102CD000FF809FFFFF80FFF9F8B5044600262348D8
:102CE000806D00F0805018B1FEF7D2FC054616E06A
:102CF00000BF1E48806D40F080501C498865084622
:102D0000806D00F08050009000BF00BFFEF7C0FC57
:102D100005461648806D20F0805014498865B5F549
:102D2000007F07D1802C10D9A02C01D902260CE0FD
:102D300001260AE0802C01D9032606E0802C01D16F
:102D4000022602E0702C00D101260948006820F01C
:102D500007003043064908600846006800F0070095
:102D6000B04201D00120F8BD0020FCE70010024075
:102D700000200240704710B5FEF786FB10BD000032
:102D800000B5ABB044211AA8FDF759FA142115A8D3
:102D9000FDF755FA54216846FDF751FAFEF780FC1D
:102DA0002C48006820F018002A499039C1F890009A
:102DB00014201A9001201C90209000202190602067
:102DC00022900220249001211AA8C16201631021DF
:102DD0004163072181630221C1630164FEF794FF0F
:102DE00008B1FDF7FFFD0F2015900320169000207D
:102DF000179018901990012115A8FEF70BFE08B145
:102E0000FDF7F0FD44F203000090002008900990C7
:102E10004FF0805012900120019001210291102169
:102E20000391072104910221059106910106079162
:102E30006846FEF749FC08B1FDF7D4FD4FF4007079
:102E4000FEF7E0FB08B1FDF7CDFDFEF733FC2BB03C
:102E500000BD0000901002400348006840F470007C
:102E6000014908607047000088ED00E090F82410E8
:102E700001F0010139B10168496821F40031826A29
:102E800011430268516090F8241001F002010229F8
:102E900007D10168496821F48031C26A1143026890
:102EA000516090F8241001F00401042907D1016851
:102EB000496821F48021026B11430268516090F847
:102EC000241001F00801082907D10168496821F49C
:102ED0000041426B11430268516090F8241001F0E8
:102EE0001001102907D10168896821F48051826B93
:102EF00011430268916090F8241001F0200120290C
:102F000007D10168896821F40051C26B114302683E
:102F1000916090F8241001F04001402913D101681C
:102F2000496821F48011026C114302685160016C00
:102F3000B1F5801F07D10168496821F4C001426CD6
:102F400011430268516090F8241001F0800180293B
:102F500007D10168496821F40021826C114302689D
:102F60005160704738B504460020C4F88000FEF771
:102F700085FA05462068006800F0080008280CD192
:102F80006FF07E402B4600224FF400110090204647
:102F900000F07FF908B1032038BD2068006800F018
:102FA000040004280CD16FF07E402B4600224FF421
:102FB00080010090204600F06CF908B10320EBE797
:102FC0002020A067E0670020206600BF84F874001E
:102FD00000BF00BFE0E700002DE9F84F04460020E5
:102FE0000090A4492068884200D100E000BF216918
:102FF000A068084361690843E16940EA010A206862
:1030000000689D49084040EA0A002168086020687D
:10301000406820F44050E168084321684860D4F8D3
:1030200018A094492068884202D0206A40EA0A0A1F
:103030002068806820F4306040EA0A0021688860D7
:1030400000BF8E492068884216D18D48006800F084
:10305000030030B1012808D0022804D0032808D189
:1030600005E0012607E0022605E0042603E0082625
:1030700001E0102600BF39E082492068884216D15D
:103080007F48006800F00C0030B1042808D0082800
:1030900004D00C2808D105E0002607E0022605E050
:1030A000042603E0082601E0102600BF1EE0714957
:1030B0002068884219D17248006800F4406048B125
:1030C000B0F5806F0AD0B0F5006F05D0B0F5406F55
:1030D00008D105E0002607E0022605E0042603E00B
:1030E000082601E0102600BF00E0102600BF61495D
:1030F0002068884245D136B1022E08D0042E08D06F
:10310000082E0DD109E0FEF765FD05460CE05E4D89
:103110000AE0FEF783FD054606E04FF4004503E0B4
:1031200000250120009000BF00BF002D0AD060687C
:1031300000EB4000A84203D860680003A84202D216
:103140000120009090E04FF48070A5FB0030D4F88F
:1031500004C04FEA5C015F1840F1000162460023A1
:103160003846FDF731F88146B9F5407F06D3B9F509
:10317000801F03D22068C0F80C9075E001200090F9
:1031800072E0E069B0F5004F3AD1092E17D2DFE8BE
:1031900006F005090D160F1616161300FEF71AFD98
:1031A000054610E0FEF728FD05460CE0364D0AE026
:1031B000FEF734FD054606E04FF4004503E0002528
:1031C0000120009000BF00BF8DB36800616800EB74
:1031D0005100B0FBF1F9B9F1100F0ED3B9F5803FF2
:1031E0000BD24FF6F07009EA000BC9F342004BEA2C
:1031F000000B2068C0F80CB036E00120009033E0EE
:10320000092E18D2DFE806F005090D170F1717175A
:103210001400FEF7DFFC054611E0FEF7EDFC054665
:103220000DE0194D0BE0FEF7F9FC054607E01BE049
:103230004FF4004503E000250120009000BF00BFCF
:1032400095B1606805EB50006168B0FBF1F9B9F128
:10325000100F07D3B9F5803F04D21FFA89F0216817
:10326000C86001E00120009000206066A066009820
:1032700000F00CB800800040F369FFEF0038014017
:1032800088100240004400400024F40018BCBDE84F
:10329000E08F2DE9F04104460D4617469846069EFC
:1032A00067E0701C002864D0FEF7E8F8A0EB080087
:1032B000B04200D836BB00BF00BF216851E8001FF4
:1032C00021F4D070226842E800010029F5D100BF46
:1032D00000BF00BF2168083151E8001F21F0010044
:1032E0002168083141E80002002AF3D100BF202004
:1032F000A067E06700BF002084F8740000BF0320CF
:10330000BDE8F0812068006800F0040080B3206808
:10331000C069C0F3C02058B34FF400602168086250
:1033200000BF00BF216851E8001F21F4D07022685F
:1033300042E800010029F5D100BF00BF00BF2168AD
:10334000083151E8001F21F001002168083141E8EF
:103350000002002AF3D100BF2020A067E067C4F874
:10336000800000BF002084F8740000BF0320C7E77E
:10337000FFE72068C0692840A84201D1012000E091
:103380000020B8428DD00020BAE700BFFEE7000061
:103390000FB4084B10B504A902AA039800F0FEF878
:1033A000044602A9002000F07FFC204610BC5DF816
:1033B00014FB0000A93C000802480068C0F302208A
:1033C000704700000CED00E010B5002804DB0A0790
:1033D000130E054A135406E00A07140E034A00F0C0
:1033E0000F031B1FD45410BD00E400E018ED00E0F3
:1033F00002E008C8121F08C1002AFAD170477047BE
:10340000002001E001C1121F002AFBD1704700001B
:103410002DE9FF5F82B00021DDE90430020DDDF807
:1034200040B0034318D044F61050A2F2FF3242439A
:103430001514119801281FD0A5EB0B00401C5FEA62
:10344000000A4FF000064E4FDFF83891B046504664
:1034500015D5CAF1000413E0119801244AA30128EC
:1034600001D16FEA0B010298119AC0E90031C0E95D
:10347000024206B000F08EB8CBF10000DFE7044650
:103480000021404A491842EB0450CDE9001012E0F7
:10349000E00707D032463B4640464946FCF7D1FF9D
:1034A0008046894632463B4610461946FCF7C9FF1E
:1034B00006460F466410002CEAD1DDE90401DDE97F
:1034C0000023BAF1000F06DAFCF7BBFF42464B4679
:1034D000FCF7B7FF05E0FDF729F842464B46FDF73C
:1034E00025F804460E460022284BFDF7A7F803D81E
:1034F0004FF0FF30014607E00022254B20463146C1
:10350000FCF7F0FEFDF781F8102409E0002C0ADB3F
:103510000A220023FCF758FE039B30321A55641E22
:1035200050EA0102F2D1641C039AC4F1110314445D
:10353000119A012A03D0012208430DD10AE0084361
:1035400004D000204FF0110B119072E7A3EB0B0594
:103550006D1E0DE05B4504DD4FF0000205F1010535
:1035600004E003DA4FF00002A5F10105002AECD0D7
:1035700002981199C0E90231C0E9004579E70000DD
:10358000000014400000F03F300000000000F04355
:103590000000E03F30BCBDE8C09F00002DE9FF4FB8
:1035A00095B09A46884606460025EEE1252877D153
:1035B00000242746F94A0121039400E0044316F849
:1035C000013F203B01FA03F01042F7D130782A285E
:1035D00011D06FF02F033078A0F13002092A16D8ED
:1035E000039A44F0020402EB820203EB420210440D
:1035F000761C0390EFE758F8042B0392002A03DAB5
:10360000504244F40054039044F00204761C307895
:103610002E2816D116F8010F44F004042A280DD0E4
:103620006FF02F023078A0F13003092B09D807EB97
:10363000870302EB4303C718761CF3E758F8047BB3
:10364000761C30786C280FD006DC4C2817D0682800
:103650000DD06A2814D104E0742810D07A280FD134
:103660000DE044F400140AE044F4801401E044F452
:1036700040147278824202D104F58014761C761CC4
:10368000307866280BD013DC582877D009DC002866
:1036900075D04528F6D04628F4D047281AD193E1B2
:1036A00018E0632835D0642879D0652812D18BE1E1
:1036B000702873D008DC6728F1D069286FD06E2895
:1036C0000DD06F2806D1ACE073282CD0752874D0AB
:1036D000782853D05246179990476D1C54E1C4F393
:1036E0000250022809D003280DD0D8F80010042871
:1036F0000DD00D6008F1040846E1D8F80010EA1773
:10370000C1E90052F6E7D8F800100D80F2E70D701D
:10371000F0E718F8041B8DF8001000208DF8010068
:10372000EB46012003E058F804BB4FF0FF3061077F
:103730004FF0000102D40DE009F101018946B942C0
:103740000FDA8145F8DB1BF809100029F4D108E0F5
:1037500009F1010189468142FADB1BF809100029B1
:10376000F6D103985346A0EB090721463846179A2D
:1037700000F083FA284400EB090507E044E008E183
:103780000DE01BF8010B524617999047B9F101095A
:10379000F7D2534621463846179AF2E039E00A211B
:1037A000C4F302524FF0000B0091022A06D058F8E1
:1037B000040BC117032A09D00AE023E008F107002F
:1037C00020F00702F2E80201904605E000B2C117BE
:1037D000042A01D140B2C117002906DA0A460021A5
:1037E000404261EB02012D2202E0220504D52B228A
:1037F0008DF80420012203E0E20701D02022F7E740
:10380000914657E00A2100E010214FF0000B009193
:103810000BE010214FF0000B44F004040827009146
:1038200003E008204FF0000B0090C4F30252022A7C
:1038300005D058F8040B0021032A08D008E008F14D
:10384000070020F00702F2E80201904603E080B290
:10385000042A00D1C0B24FF0000922072AD53278DD
:10386000702A07D0DDF800C08CF0100C5CEA0B0C5D
:1038700005D00EE040228DF80420012208E050EA35
:10388000010306D030238DF804308DF80520022284
:103890009146009B83F0080353EA0B030AD150EAD8
:1038A000010201D1620705D530228DF804204FF0C6
:1038B00001097F1E3278582A04D039A20C920CAA32
:1038C00002920BE03BA2F9E75B46009AFCF77CFC16
:1038D0000C9B9B5C029A521E0292137050EA0102EA
:1038E000F2D1029804A9081A00F1200B600702D552
:1038F00024F4803400E001275F4502DDA7EB0B00D4
:1039000000E0002000EB0B01009003984944401AAE
:103910000390E00306D453462146179A039800F01B
:10392000ACF90544002706E001A85246C05D17998E
:1039300090476D1C7F1C4F45F6DBE0030CD55346CA
:103940002146179A039800F098F9054404E03020C6
:103950005246179990476D1C0099481E0090002907
:10396000F5DC08E00298029952460078491C029161
:10397000179990476D1CBBF10001ABF1010BF1DC15
:103980005BE100F068F90544761C307800287FF48C
:103990000DAE19B0284600F05BB9000009280100FF
:1039A00030313233343536373839616263646566B5
:1039B0000000000030313233343536373839414277
:1039C0004344454600000000600700D4062708F184
:1039D000070020F00700F0E80223804603F0004CC7
:1039E0005FEA0C0001D097A009E0200501D596A060
:1039F00005E0E00701D095A001E0AFF24C00139084
:103A0000307823F0004365280CD006DC452809D027
:103A100046281DD047287FD13BE0662818D067286C
:103A20007AD136E00021112F01DB112000E0781C53
:103A3000CDE9000104A90CA8FFF7EAFCDDE90D01BE
:103A40000C9A4FF0000B07F10109109200914EE023
:103A50004FF000400097CDE9011004A90CA8FFF732
:103A6000D7FCDDE90D020C9B0F994FF0000B91463E
:103A70001093009211B9791C00EB0109B7EB090012
:103A800003D4C0F1FF3B07F10109A9EB0700019046
:103A900042E0012F00DA01270021112F01DD112062
:103AA00000E03846CDE9000104A90CA8FFF7B0FCFE
:103AB000DDE90D010C9A00914FF0000BB946109210
:103AC00021070FD4009A4A4503DA914601E0A9F193
:103AD0000109B9F1010F05DD109AA9F10101515C4D
:103AE0003029F4D0B84202DA10F1040F03DA0121D0
:103AF000CDE9011010E0002803DC8344A9EB0001AC
:103B000002E0411C494500DD8946A0EB0B00401C4A
:103B100001904FF000400290200705D401984845DD
:103B200002DB4FF0FF30019000208DF84B0002982F
:103B30000DF14B07B0F1004F25D002200C902B2047
:103B40000D90029800280CDA404202902D200D9032
:103B500007E00A210298FCF790FB3031029007F849
:103B6000011D0C99481E0C900029F2DC02980028D7
:103B7000EFD1791E0D980870307800F0200040F0E9
:103B8000450007F8020D11A8C01BC01D0290139834
:103B9000007800B1012000EB0901019801EBE07110
:103BA000029801440398401A401E0390E00306D493
:103BB00053462146179A039800F05FF8054413987E
:103BC000007818B15246179990476D1CE00323D531
:103BD00053462146179A039800F04FF805441BE01E
:103BE000BBF1000F07DB0098584504DD10981799CA
:103BF00010F80B0001E017993020524690470198C9
:103C00000BF1010B401E05F10105019004D12E209E
:103C10005246179990476D1CB9F10001A9F10109AD
:103C2000DEDC05E017F8010B5246179990476D1C32
:103C30000299481E02900029F4DC53462146179A47
:103C400003989EE62D0000002B00000020000000DD
:103C500030BCBDE8C08F2DE9F041044600251E466A
:103C60001746880404D405E039462020B0476D1C6F
:103C7000641EF9D52846BDE8F0812DE9F0410446DF
:103C800000251E469046C80301D5302700E02027B6
:103C9000880404D505E041463846B0476D1C641ED3
:103CA000F9D52846BDE8F0810A68531C0B601070F6
:103CB000704700002DED048B82B0FDF7F1FBFFF79C
:103CC0005FF8FEF75BFEFEF7DBFEFEF713FEFEF786
:103CD000B7FE4F48FDF793FA002202214D48FDF749
:103CE000C7FB002201214B48FDF7C2FB20214FF00A
:103CF0009040FCF7E3FD89E047494848FCF79EFD0A
:103D0000002839D0454890ED000AF3EE0E0AB4EED3
:103D1000E00AF1EE10FA0FD83F4890ED000ADFED0F
:103D2000400AB4EEE00AF1EE10FA05D801220221B1
:103D30003848FDF79DFB04E0002202213548FDF7DD
:103D400097FB35480068FCF785FA41EC190B3348BE
:103D50000068FCF77FFA41EC180B8DED009B53ECEB
:103D6000182B30A13B48FFF713FB0A2332223949B5
:103D70003948FEF7F4FC09E038A13648FFF708FBA4
:103D80000A23322233493448FEF7E9FC4FF47A71B2
:103D90001F48FDF7D1F91E48FDF791F83349087027
:103DA000002201211B48FDF763FB3048007896286C
:103DB00005DC012211461748FDF75AFB04E00022FA
:103DC00001211448FDF754FB2848027828A12C480B
:103DD000FFF7DEFA0A23322229491F48FEF7BFFC0B
:103DE0000A23012227492848FEF722FC25480278A9
:103DF00026A12D48FFF7CCFA0A2364222A49164847
:103E0000FEF7ADFC4FF47A70FDF744FA74E700005A
:103E100028000020000400481400002010000020AA
:103E20000000B4420D0A54656D7020284329203DDE
:103E30000920252E31660D0A48756D69646974790B
:103E40002028252529203D0920252E316625250DF0
:103E50000A0000002A020020100100200D0A43522F
:103E600043204572726F72210D0A00000900002084
:103E7000536F696C20565743203D2025640D0A007E
:103E8000940100200A0000208C0000204C69676823
:103E9000742053656E7369746976697479203D2066
:103EA00025640D0A00000000C6010020000000008B
:103EB00000000000010203040607080900000000DA
:103EC00001020304A0860100400D0300801A0600D1
:103ED00000350C0040420F0080841E0000093D00A8
:103EE00000127A000024F40000366E010048E80158
:103EF000006CDC02143F00080000002028000000D5
:103F0000F03300083C3F000828000020680600004D
:103F10000034000800000000000000000000000065
:103F20000000000000000000000000000000000091
:0C3F3000100000000100000000093D002E
:040000050800018D61
:00000001FF
